:100000000C9488000C94B0000C94B0000C94B000D8
:100010000C94B0000C94B0000C94B0000C941A082E
:100020000C94B0000C94B0000C94B0000C94B00090
:100030000C94B0000C94B0000C94B0000C94B00080
:100040000C94F4080C94B0000C94C2080C949C0816
:100050000C94B0000C94B0000C94B0000C94B00060
:100060000C943E090C94B000300030003000300099
:100070003000300000000000240027002A000000AB
:1000800000002300260029000000000800020100F3
:100090000003040700000000000000002041495256
:1000A000534F465420205041494E5442414C4C201D
:1000B00000202020564153452020204948524953D2
:1000C0004B4F20202000544C414349444C4F56593B
:1000D00020444F4D494E41544F5200010204081034
:1000E00020408001020408102001020408102000B2
:1000F000000000250028002B00040404040404046C
:1001000004020202020202030303030303025D0A64
:1001100011241FBECFEFD8E0DEBFCDBF11E0A0E0BD
:10012000B1E0EAEEF4E202C005900D92A83AB10700
:10013000D9F723E0A8EAB1E001C01D92A735B207C4
:10014000E1F710E0C8E8D0E004C02197FE010E946A
:100150004811C738D107C9F70E94960A0C94731248
:100160000C94000008950895DC01ED91FC9101903C
:10017000F081E02D0994EF92FF920F931F93CF939C
:10018000DF938C017B01D0E0C0E0F701EC0FFD1F95
:100190006491662361F0D801ED91FC910190F081AA
:1001A000E02DC8010995892B11F02196EECFCE01E3
:1001B000DF91CF911F910F91FF90EF900895AF9233
:1001C000BF92CF92DF92EF92FF920F931F93CF9344
:1001D000DF936C017B018B01040F151FEB015E01A6
:1001E000AE18BF08C017D10759F06991D601ED913B
:1001F000FC910190F081E02DC6010995892B79F7DA
:10020000C501DF91CF911F910F91FF90EF90DF908B
:10021000CF90BF90AF900895FC01538D448D252F52
:1002200030E0842F90E0821B930B541710F0CF9690
:10023000089501970895FC01918D828D981761F0C2
:10024000A28DAE0FBF2FB11D5D968C91928D9F5FD9
:100250009F73928F90E008958FEF9FEF0895FC01B8
:10026000918D828D981731F0828DE80FF11D858D6B
:1002700090E008958FEF9FEF0895FC01918D228DFE
:10028000892F90E0805C9F4F821B91098F73992783
:1002900008958AEA92E00E943D0121E0892B09F449
:1002A00020E0822F089580E090E0892B29F00E94C1
:1002B000490181110C9400000895FC01A48DA80F40
:1002C000B92FB11DA35ABF4F2C91848D90E0019698
:1002D0008F739927848FA689B7892C93A089B189B8
:1002E0008C91837080648C93938D848D981306C059
:1002F0000288F389E02D80818F7D80830895EF92BD
:10030000FF920F931F93CF93DF93EC0181E0888FCF
:100310009B8D8C8D98131AC0E889F989808185FF9F
:1003200015C09FB7F894EE89FF896083E889F98941
:1003300080818370806480839FBF81E090E0DF9143
:10034000CF911F910F91FF90EF900895F62E0B8D96
:1003500010E00F5F1F4F0F731127E02E8C8D8E1151
:100360000CC00FB607FCFACFE889F989808185FFB8
:10037000F5CFCE010E945D01F1CFEB8DEC0FFD2F8B
:10038000F11DE35AFF4FF0829FB7F8940B8FEA8973
:10039000FB8980818062CFCFCF93DF93EC01888D82
:1003A0008823B9F0AA89BB89E889F9898C9185FDF0
:1003B00003C0808186FD0DC00FB607FCF7CF8C917E
:1003C00085FFF2CF808185FFEDCFCE010E945D01D8
:1003D000E9CFDF91CF910895833081F028F4813007
:1003E00099F08230A9F008958730A9F08830C9F0DB
:1003F0008430B1F4809180008F7D03C080918000B3
:100400008F7780938000089584B58F7784BD089599
:1004100084B58F7DFBCF8091B0008F778093B00043
:1004200008958091B0008F7DF9CFCF93DF93282F6F
:1004300030E0F901E857FF4F8491F901E552FF4F91
:10044000D491F901E750FF4FC491CC23A1F0811161
:100450000E94EC01EC2FF0E0EE0FFF1FE258FF4F7F
:10046000A591B491EC91ED2381E090E009F480E056
:10047000DF91CF91089580E090E0FACF1F93CF9362
:10048000DF93282F30E0F901E857FF4F8491F901FD
:10049000E552FF4FD491F901E750FF4FC491CC23AF
:1004A000A9F0162F81110E94EC01EC2FF0E0EE0F65
:1004B000FF1FE151FF4FA591B4918FB7F894EC91D4
:1004C000111108C0D095DE23DC938FBFDF91CF914F
:1004D0001F910895DE2BF8CFCF93DF9390E0FC01BE
:1004E000E552FF4F249187509F4FFC018491882350
:1004F000D1F090E0880F991FFC01EC58FF4FA591B7
:10050000B491FC01E151FF4FC591D491623071F477
:100510009FB7F8943C91822F809583238C93E88138
:100520002E2B28839FBFDF91CF9108958FB7F8942A
:10053000EC912E2B2C938FBFF6CF8F929F92AF9280
:10054000BF92CF92DF92EF92FF920F931F93CF93C0
:100550008C016A017B0180910001853079F08F3F29
:1005600009F44FC0CF911F910F91FF90EF90DF9052
:10057000CF90BF90AF909F908F900895EDE0F1E005
:10058000C491C7FDEFCF61E085E00E946C02C1110C
:100590004EC0980150E040E068E478EE81E090E0E1
:1005A0000E94ED1049015A0181E0881A9108A108C2
:1005B000B10885B5887F836085BDD801AA0FBB1FB0
:1005C000A70196010E940C1128EE33E040E050E0B4
:1005D0000E941711C13009F4B4C0C23009F4C3C07D
:1005E000C111C0CF87BC209356023093570240936D
:1005F00058025093590280916E00826080936E0081
:10060000B1CF85E080930001EDE0F1E0C491CF3FF0
:1006100009F4A8CFC13009F43DC018F1C23009F483
:1006200057C0C7FD9FCF61E085E00E946C02980132
:1006300050E040E0C23009F06DC060E970ED83E049
:1006400090E00E94ED1049015A0181E0881A91085A
:10065000A108B1088091B100887F83608093B100C8
:10066000ACCF14BC15BC84B5826084BD85B58160F7
:1006700085BDEEEFF0E0E491F0E0EE0FFF1FE151F9
:10068000FF4F85919491E0EEF0E0E491E0934D020C
:10069000C0E079CF1092800010928100809181009B
:1006A00088608093810080918100816080938100C7
:1006B000EEEFF0E0E491F0E0EE0FFF1FE151FF4FAD
:1006C00085919491E0EEF0E0E491E0934C025BCFF1
:1006D0001092B0001092B1008091B00082608093BF
:1006E000B0008091B10081608093B100EEEFF0E046
:1006F000E491F0E0EE0FFF1FE151FF4F85919491DF
:1007000090934B0280934A02E0EEF0E0E491E09394
:10071000490239CF60E072E18AE790E00E94ED1073
:1007200049015A0181E0881A9108A108B108C13035
:1007300009F043CF80918100887F816080938100A0
:100740003CCF90928900809288002093520230938F
:100750005302409354025093550280916F0082607F
:1007600080936F00FFCE8092B30020934E023093AF
:100770004F0240935002509351028091700082606A
:1007800080937000EFCE3FB7F89480911102909162
:100790001202A0911302B091140226B5A89B05C0C5
:1007A0002F3F19F00196A11DB11D3FBFBA2FA92FF0
:1007B000982F8827BC01CD01620F711D811D911DED
:1007C00042E0660F771F881F991F4A95D1F7089559
:1007D0008F929F92AF92BF92CF92DF92EF92FF9251
:1007E0004B015C010E94C3036B017C010E94C303A7
:1007F0006C197D098E099F09683E7340810591053A
:10080000A8F321E0821A9108A108B10888EEC80E69
:1008100083E0D81EE11CF11C81149104A104B104F1
:1008200029F7FF90EF90DF90CF90BF90AF909F900F
:100830008F9008952FB7F89460910D0270910E0279
:1008400080910F02909110022FBF08952091E9012D
:10085000260F3327331F21323105ECF4209180021B
:10086000FC0190E080E0243069F082E00895A091DE
:10087000E9012191AC0147535E4FA40FB52FB11D83
:100880002C930196861798F38091E901680F609385
:10089000E90180E0089581E008951092800281E0EE
:1008A00080937F0210925A0261E082E10E943E0230
:1008B00061E083E10E943E02E9EBF0E080818E7FFF
:1008C000808380818D7F808388E48093B80085E475
:1008D0008093BC000895CF93DF9391E09093C8017B
:1008E0008823B9F0C091B800D091BA008091BC00C3
:1008F0008A7B8093BC0060E082E10E943E0260E05F
:1009000083E10E943E020E944D04D093BA00C0933E
:10091000B800DF91CF910895CF92DF92EF92FF92CE
:100920000F931F93CF93DF93D091A90281E0D1322F
:1009300008F09CC0C091A8020E94C3036B017C0117
:100940008091800281116CC082E08093800281E0FE
:1009500080937F028FEF80937E0210927D02D0936E
:100960007C02A8E8B2E0ECE5F2E080E0D8138DC0AC
:1009700010925B0280915B02CC0FC82BC0935B028C
:1009800080915A02813009F084C010925A020E946C
:10099000C3036B017C0180915B028093BB0080915B
:1009A000820290918302A0918402B0918502892BEA
:1009B0008A2B8B2BA1F00E94C3030091820210911D
:1009C000830220918402309185026C197D098E0981
:1009D0009F09061717072807390708F442C08091B6
:1009E000BC0083FDD8CF85EC8093BC000E94C3037C
:1009F0006B017C0180918002823009F44CC08091AF
:100A00007E028F3F09F469C080917E02803209F432
:100A100066C080917E02803309F463C084E026C002
:100A20008091820290918302A0918402B09185020C
:100A3000892B8A2B8B2B09F483CF0E94C30300914F
:100A400082021091830220918402309185026C19F8
:100A50007D098E099F09061717072807390708F02F
:100A60006FCF809181020E946B0485E01092870213
:100A70001092A90210928602DF91CF911F910F91DF
:100A8000FF90EF90DF90CF9008959D9191938F5FAD
:100A90006DCF85EEA9CF8091820290918302A091C3
:100AA0008402B0918502892B8A2B8B2B09F4A2CF6B
:100AB0000E94C3030091820210918302209184025C
:100AC000309185026C197D098E099F090617170759
:100AD0002807390708F08ECFC4CF80E0C7CF82E067
:100AE000C5CF83E0C3CF0895E0911A028091190227
:100AF000E81730F4F0E0E855FE4F808190E008956B
:100B00008FEF9FEF089590911A02809119022FEFB5
:100B10003FEF981748F4E92FF0E0E855FE4F2081A9
:100B200030E09F5F90931A02C901089580911902E5
:100B300090911A02891B990B0895CF92DF92EF9240
:100B4000FF920F931F93CF93DF937C01CB018A0118
:100B500020918602222389F0EB016B01C40ED51E81
:100B6000CC15DD0569F06991D701ED91FC910190FB
:100B7000F081E02DC7010995F3CF642F0E94260470
:100B8000C801DF91CF911F910F91FF90EF90DF90FF
:100B9000CF900895CF93DF931F92CDB7DEB76983CF
:100BA000209186022223F9F02091A902203258F0E8
:100BB00021E030E0FC013383228390E080E00F905D
:100BC000DF91CF91089580918702E82FF0E0E857F8
:100BD000FD4F998190838F5F809387028093A90254
:100BE00081E090E0ECCF61E0CE0101960E94260406
:100BF000F7CFFC01248131E0309386022093A802D4
:100C0000109287021092A9028385682B87E493E0F3
:100C10000E94CA050C948C04089590E080E0089529
:100C20000F931F93CF938C01C62F0E94F9056C2F51
:100C30006460C8010E94F9056C2F6B7FC8010E9497
:100C4000F90583EC90E00197F1F7CF911F910F9197
:100C500008950F931F93CF93DF938C01D62FC42F4A
:100C6000607F642B0E94100680E1D89FB0011124A0
:100C70006C2BC801DF91CF911F910F910C9410063E
:100C800041E00E94290681E090E00895CF93DF9330
:100C9000CDB7DEB728970FB6F894DEBF0FBECDBF35
:100CA00028E0E7E0F1E0DE01119601900D922A952F
:100CB000E1F7FC012185241710F44FEF420F50E0BB
:100CC000440F551F21E030E02C0F3D1F420F531FF2
:100CD000FA012081620F606840E028960FB6F89410
:100CE000DEBF0FBECDBFDF91CF910C942906FB0173
:100CF00001900020E9F73197AF01461B570BDC014B
:100D0000ED91FC910280F381E02D09948F929F92E6
:100D1000AF92BF92EF92FF920F931F93CF93DF9307
:100D2000CDB7DEB7A1970FB6F894DEBF0FBECDBF2B
:100D30007C01FA01CB0119A2223008F42AE08E01CD
:100D40000F5D1F4F822E912CB12CA12CBF01A5014C
:100D500094010E941711F901CA016A300CF5605D17
:100D6000D8016E938D01232B242B252B79F790E04E
:100D700080E0109721F0BD01C7010E947706A1967F
:100D80000FB6F894DEBF0FBECDBFDF91CF911F919C
:100D90000F91FF90EF90BF90AF909F908F9008952C
:100DA000695CDECFCF92DF92EF92FF920F931F9399
:100DB000CF93DF936B01770FEE08FF08F7FE1BC0A0
:100DC000EC016DE20E94B4008C0144275527BA0162
:100DD0004C195D096E097F092AE0CE010E94860642
:100DE000800F911FDF91CF911F910F91FF90EF9096
:100DF000DF90CF9008952AE0B701A601DF91CF914F
:100E00001F910F91FF90EF90DF90CF900C9486068A
:100E1000CF93DF93C0913D02D0913E0241E064E068
:100E2000CE010E94460680913102909132020A97CB
:100E30002CF462E770E0CE010E94BB0060913102A9
:100E40007091320280913D0290913E020E94D20642
:100E5000C0913D02D0913E0241E067E0CE010E9488
:100E6000460680913302909134020A972CF460E791
:100E700070E0CE010E94BB00609133027091340299
:100E800080913D0290913E020E94D206C0913D02A7
:100E9000D0913E0241E06AE0CE010E944606809178
:100EA0003502909136020A972CF46EE670E0CE017E
:100EB0000E94BB00609135027091360280913D0224
:100EC00090913E02DF91CF910C94D206CF93DF93A5
:100ED000C0913D02D0913E0240E064E0CE010E940C
:100EE000460680913702909138020A972CF46CE6FE
:100EF00070E0CE010E94BB00609137027091380211
:100F000080913D0290913E020E94D206C0913D0226
:100F1000D0913E0240E067E0CE010E9446068091FB
:100F2000390290913A020A972CF46AE670E0CE01F9
:100F30000E94BB006091390270913A0280913D029B
:100F400090913E020E94D206C0913D02D0913E0295
:100F500040E06AE0CE010E94460680913B029091FB
:100F60003C020A972CF468E670E0CE010E94BB00B8
:100F700060913B0270913C0280913D0290913E0253
:100F8000DF91CF910C94D2060C947706CF93DF9328
:100F9000C0913D02D0913E0243E060E0CE010E944C
:100FA000460680914002811106C080913F026FE3A6
:100FB00071E0882311F064E571E0CE01DF91CF91FB
:100FC0000C94C40785ED8093BC00809182029091BF
:100FD0008302A0918402B09185020796A11DB11DE4
:100FE00023E0B695A795979587952A95D1F72091F7
:100FF000BC0024FD03C0109280020895409182023B
:10100000509183026091840270918502452B462B9A
:10101000472B69F30097A105B10541F02AE22A9513
:10102000F1F700C00197A109B109E1CF80918102D8
:101030000C946B041F920F920FB60F9211242F93F2
:101040003F934F935F936F937F938F939F93AF9350
:10105000BF93EF93FF9380914E0290914F02A09126
:101060005002B0915102892B8A2B8B2BD1F1909198
:101070004902E0914A02F0914B02808189278083E6
:1010800080914E0290914F02A0915002B091510276
:10109000181619061A061B069CF480914E029091B0
:1010A0004F02A0915002B09151020197A109B109DC
:1010B00080934E0290934F02A0935002B09351023E
:1010C000FF91EF91BF91AF919F918F917F916F9120
:1010D0005F914F913F912F910F900FBE0F901F90F6
:1010E000189580910001EDE0F1E0E4919FEF90937D
:1010F0000001E13051F030F0E23069F060E00E9430
:101100003E02DECF10926E00F9CF90916F009D7F6E
:1011100090936F00F3CF909170009D7F909370003B
:1011200091E09093B0009091B100987F946090937B
:10113000B1001092B300E2CF1F920F920FB60F9240
:1011400011242F933F934F935F936F937F938F93CC
:101150009F93AF93BF93EF93FF938AEA92E00E942D
:101160005D01FF91EF91BF91AF919F918F917F9121
:101170006F915F914F913F912F910F900FBE0F9004
:101180001F9018951F920F920FB60F9211242F9354
:101190008F939F93EF93FF93E091BA02F091BB027C
:1011A0008081E091C002F091C10282FD1BC090815C
:1011B0008091C3028F5F8F732091C402821741F028
:1011C000E091C302F0E0E655FD4F958F8093C30296
:1011D000FF91EF919F918F912F910F900FBE0F90E4
:1011E0001F9018958081F4CF1F920F920FB60F9227
:1011F00011242F933F938F939F93AF93BF9380912D
:101200000D0290910E02A0910F02B0911002309148
:101210000C0223E0230F2D3758F50196A11DB11DB7
:1012200020930C0280930D0290930E02A0930F0264
:10123000B09310028091110290911202A0911302BA
:10124000B09114020196A11DB11D809311029093DB
:101250001202A0931302B0931402BF91AF919F9119
:101260008F913F912F910F900FBE0F901F90189567
:1012700026E8230F0296A11DB11DD2CF1F920F9217
:101280000FB60F9211242F933F934F935F936F9359
:101290007F938F939F93AF93BF93EF93FF9380912F
:1012A000B900887F803609F44AC0F0F5883209F425
:1012B000A7C018F5803109F49BC0B8F4882309F45D
:1012C000F9C0883009F494C0FF91EF91BF91AF91BC
:1012D0009F918F917F916F915F914F913F912F914E
:1012E0000F900FBE0F901F901895883109F488C099
:1012F000803251F780937E0214C0803409F49DC07F
:1013000040F48033B9F38833F9F680937E0285EC9C
:10131000B0C0803509F485C0883509F496C088349A
:1013200099F60E94E207D0CF883909F48CC038F5CD
:10133000883729F050F4883611F0803729F683E099
:101340008093800210920B0257C0883809F47BC04A
:10135000803919F0803809F0B7CF80910B028032C4
:1013600008F071C0E0910B0281E08E0F80930B02B8
:101370008091BB00F0E0E551FE4F80833DC0803B93
:1013800039F0E0F4803A09F479C0883A09F09CCF4A
:1013900084E0809380021092EA011092E901E091CA
:1013A0001502F091160209958091E90181110FC093
:1013B00081E08093E9011092C90109C0803C09F4E1
:1013C000A6CF883C09F4A3CF883B09F07DCFE091FC
:1013D000EA0181E08E0F8093EA01F0E0E753FE4FCF
:1013E00080818093BB009091EA018091E90129C03E
:1013F00080915B028093BB0085EC8093BC0064CF3E
:1014000090917D0280917C02981758F5E0917D02C1
:1014100081E08E0F80937D02F0E0E45AFD4F8081E1
:10142000E9CFE0917D0281E08E0F80937D02809173
:10143000BB00F0E0E45AFD4F808390917D028091E3
:101440007C029817C8F285E8D8CFE0917D0281E050
:101450008E0F80937D028091BB00F0E0E45AFD4F37
:10146000808380917F0281115CCF81E080935A025A
:1014700084EA8093BC001092800226CF85EC809392
:10148000BC001092800280910B02803230F4E09117
:101490000B02F0E0E551FE4F108260910B0270E00C
:1014A000E0911702F09118028BEE91E009951092ED
:1014B0000B020ACF10927E0234CFEAEAF2E01382E6
:1014C000128288EE93E0A0E0B0E084839583A68347
:1014D000B7832FE131E03183208325EC30E035877D
:1014E000248724EC30E03787268720EC30E0318BEE
:1014F000208B21EC30E0338B228B22EC30E0358BDB
:10150000248B26EC30E0378B268B118E128E138EB7
:10151000148EE7E4F3E01382128284839583A6831A
:10152000B78381E391E0918380830895789484B5B3
:10153000826084BD84B5816084BD85B5826085BDCF
:1015400085B5816085BD80916E00816080936E005D
:10155000109281008091810082608093810080914F
:101560008100816080938100809180008160809300
:1015700080008091B10084608093B1008091B000C0
:1015800081608093B00080917A00846080937A00BB
:1015900080917A00826080937A0080917A008160E5
:1015A00080937A0080917A00806880937A0010920C
:1015B000C100E091BA02F091BB0282E08083E09129
:1015C000B602F091B7021082E091B802F091B90230
:1015D0008FEC80831092C202E091BE02F091BF02B4
:1015E00086E08083E091BC02F091BD028081806141
:1015F0008083E091BC02F091BD028081886080838D
:10160000E091BC02F091BD02808180688083E0910E
:10161000BC02F091BD0280818F7D808361E084E017
:101620000E946C0261E083E00E946C0261E087E04E
:101630000E946C0261E086E00E946C0261E085E03D
:101640000E946C0262E08AE00E946C0262E08BE021
:101650000E946C0210921A02109219020E944D040C
:1016600082EB90E0909316028093150283EB90E05A
:10167000909318028093170211E0C1E0C093860294
:101680001093A802109287021092A9020E948C0463
:10169000811116C269E671E08AEA92E00E94C407ED
:1016A000103130F466EA71E08AEA92E00E94C407E1
:1016B000412F50E070E060E020E18AEA92E00E9471
:1016C000860668E871E08AEA92E00E9477066BE895
:1016D00071E08AEA92E00E9477068CE090E00E9436
:1016E0004E11EC011B821A8283E191E09983888379
:1016F0001C8384E1888784E089871A8618E01B8729
:10170000D0933E02C0933D0210921A021092190229
:10171000109287021092A9020E944D0482EB90E081
:10172000909316028093150283EB90E09093180239
:10173000809317021D828985823008F01D839A8567
:10174000992329F0813019F48D8184608D8362E3BF
:1017500070E080E090E00E94E8036B85CE010E947B
:10176000F90568EE73E080E090E00E94E80360E332
:10177000CE010E9410060BE416E4C8010197F1F7B0
:1017800060E3CE010E941006C8010197F1F760E303
:10179000CE010E94100683E592E00197F1F760E226
:1017A000CE010E9410066D81606240E0CE010E9471
:1017B000290684E08E8340E06CE0CE010E94290679
:1017C00040E061E0CE010E9429060BE31FE1C80161
:1017D0000197F1F782E08F8340E066E0CE010E943E
:1017E000290640E062E0CE010E942906C801019767
:1017F000F1F788E08B8760E0CE010E94F90540E0B8
:1018000060E0CE010E94460666EC70E0CE010E94C8
:10181000BB00C0913D02D0913E0242E060E0CE01AB
:101820000E94460661EB70E0CE010E94BB00C091B1
:101830003D02D0913E0243E060E0CE010E944606A8
:101840006CE970E0CE010E94BB00D0E0C0E0CE01A8
:101850008370992761E08230910509F442C1833099
:10186000910509F44AC1019709F42FC186E00E944D
:101870003E026AEF70E080E090E00E94E80360E0E2
:1018800086E00E943E0200913D0210913E0241E03E
:101890006C2FC8010E944606D801ED91FC91019081
:1018A000F081E02D6FEFC80109952196C431D10573
:1018B00071F664EF71E080E090E00E94E803C0916F
:1018C0003D02D0913E0240E061E0CE010E94290637
:1018D0008BE39FE10197F1F740E060E0CE010E94C9
:1018E00046066EE871E0CE010E94C407C0913D0239
:1018F000D0913E0241E060E0CE010E9446066BE9D5
:1019000071E0CE010E94C4070E94C60780E0282E25
:1019100080E0382EBB24B3948AE00E941502EC01CB
:1019200090934802809347028BE00E9415029093A7
:10193000460280934502CD2B09F0EBC0892B09F0BC
:10194000E8C08091410290914202A0914302B0917F
:101950004402892B8A2B8B2BE1F50E941A04609399
:10196000410270934202809343029093440280911B
:101970004002811104C080913F02882341F11092FE
:10198000400210923F0260E084E00E943E0260E06C
:1019900086E00E943E0244E650E060E070E08CED9C
:1019A00095E00E949D0242E060E080913D029091AE
:1019B0003E020E944606C4E1D0E067E671E08091F5
:1019C0003D0290913E020E94C4072197B1F70E9408
:1019D000C6070E941A040091410210914202209110
:1019E000430230914402601B710B820B930B6838E9
:1019F00073418105910508F457C00F3F1F4F2F4FCA
:101A00003F4F09F451C01092400210923F021092D1
:101A10003C0210923B0210923A021092390210924C
:101A2000380210923702109236021092350210924C
:101A300034021092330210923202109231020E944C
:101A400066070E94080760E084E00E943E0260E0B2
:101A500086E00E943E0248EC50E060E070E084ECDA
:101A600099E00E949D0242E060E080913D029091E9
:101A70003E020E944606C4E1D0E067E671E0809134
:101A80003D0290913E020E94C4072197B1F70E9447
:101A9000C6078FEF9FEFDC018093410290934202D3
:101AA000A0934302B09344022114310409F434CFCB
:101AB0000E944901882309F42DCF0E9400002ACFFB
:101AC0001F5F1F3709F0DACD08CE83E00E943E0287
:101AD0006AEF70E080E090E00E94E80360E083E05D
:101AE000D0CE84E00E943E026AEF70E080E090E099
:101AF0000E94E80360E084E0C4CE87E00E943E02DA
:101B00006AEF70E080E090E00E94E80360E087E028
:101B1000B8CE1092410210924202109243021092EB
:101B200044020E94C60780913F02811172C08091D9
:101B30004002882309F46DC0809140028111C2C126
:101B400080913F02882309F4BDC10E941A040091CC
:101B50002402109125022091260230912702601B59
:101B6000710B820B930B683E73408105910508F45D
:101B70009BCF0E941A0460932402709325028093E5
:101B80002602909327028AE00E9415020197C9F469
:101B90008BE00E9415020197A1F442E060E0809181
:101BA0003D0290913E020E944606C4E1D0E067E605
:101BB00071E080913D0290913E020E94C4072197FE
:101BC000B1F780914002882379F080913B02909197
:101BD0003C0201968C3391050CF0C1C290933C02FB
:101BE00080933B020E94660780913F02882309F49C
:101BF0005BCF809135029091360201968C3391052E
:101C00000CF0CCC290933602809335020E940807F4
:101C10004BCF8091470290914802892B09F08CCFDD
:101C20008091450290914602019709F085CF0E946C
:101C30001A0460932D0270932E0280932F029093CA
:101C400030026093290270932A0280932B029093B2
:101C50002C02109228028AE00E941502EC0180906A
:101C60003D0290903E02892BB1F58BE00E94150257
:101C7000019789F50E941A046B017C018BE00E9498
:101C80001502892BD1F51092400210923F0260E0BC
:101C900084E00E943E0260E086E00E943E0244E64C
:101CA00050E060E070E08CED95E00E949D0242E023
:101CB00060E0C4010E944606C4E1D0E067E671E03E
:101CC00080913D0290913E020E94C4072197B1F796
:101CD0000E94C607E9CE42E060E0C4010E944606C9
:101CE000C4E1D0E067E671E080913D0290913E0250
:101CF0000E94C4072197B1F71FCF809129029091CC
:101D00002A02A0912B02B0912C02A7019601281B58
:101D1000390B4A0B5B0BDA01C90184369105A10529
:101D2000B10508F46BC080912D0290912E02A09114
:101D30002F02B091300226013701481A590A6A0A67
:101D40007B0AC0922902D0922A02E0922B02F092E2
:101D50002C02A4E1B0E0A30192010E940C1128E83A
:101D600033E140E050E00E94ED108901253131055A
:101D700014F004E110E017FF02C010E000E042E0C0
:101D800060E0C4010E944606C017D10749F06FEF1A
:101D900080913D0290913E020E94B4002196F4CFC2
:101DA000C431D10551F067E671E080913D02909118
:101DB0003E020E94C4072196F3CF34EC431639E06B
:101DC000530661047104D0F080913F028823B1F082
:101DD00080912802811112C010923F0260E086E0DB
:101DE0000E943E0242E350E060E070E088EE93E043
:101DF0000E949D02B09228020E94C60780912D0287
:101E000090912E02A0912F02B0913002C81AD90AE7
:101E1000EA0AFB0A48E8C41643E1D406E104F104E7
:101E200008F419CF42E060E080913D0290913E02BB
:101E30000E944606C4E1D0E06FEF80913D02909190
:101E40003E020E94B4002197B9F764EF71E080E090
:101E500090E00E94E80342E060E080913D029091B2
:101E60003E020E944606C4E1D0E067E671E0809140
:101E70003D0290913E020E94C4072197B1F78091E4
:101E8000400281110AC00E941A04609324027093D8
:101E900025028093260290932702B092400210926E
:101EA0003F0260E086E00E943E0261E084E00E9422
:101EB0003E0242E350E060E070E080ED97E00E9477
:101EC0009D0206CF8091450290914602892B09F030
:101ED0003CCE8091470290914802019709F035CE9F
:101EE0000E941A04609320027093210280932202C0
:101EF0009093230260931C0270931D0280931E0234
:101F000090931F0210921B028BE00E941502EC01BD
:101F100080903D0290903E02892B91F042E060E07B
:101F2000C4010E944606C4E1D0E067E671E08091FA
:101F30003D0290913E020E94C4072197B1F705CE61
:101F40008AE00E941502019749F70E941A046B016A
:101F50007C018AE00E941502892B31F51092400223
:101F600010923F0260E084E00E943E0260E086E062
:101F70000E943E0244E650E060E070E08CED95E0A7
:101F80000E949D0242E060E0C4010E944606C4E156
:101F9000D0E067E671E080913D0290913E020E94A0
:101FA000C4072197B1F794CE80911C0290911D0235
:101FB000A0911E02B0911F02A7019601281B390BA8
:101FC0004A0B5B0BDA01C90184369105A105B10505
:101FD00008F46BC08091200290912102A09122020E
:101FE000B091230226013701481A590A6A0A7B0A6E
:101FF000C0921C02D0921D02E0921E02F0921F02BB
:10200000A4E1B0E0A30192010E940C1128E833E1A1
:1020100040E050E00E94ED1089012531310514F0B7
:1020200004E110E017FF02C010E000E042E060E0D1
:10203000C4010E9446060C171D0749F06FEF8091FE
:102040003D0290913E020E94B4002196F4CFC4312B
:10205000D10551F067E671E080913D0290913E021A
:102060000E94C4072196F3CF34EC431639E053069F
:1020700061047104D0F0809140028823B1F0809116
:102080001B02811112C01092400260E084E00E94A5
:102090003E0242E350E060E070E088EE93E00E9490
:1020A0009D02B0921B020E94C6078091200290916F
:1020B0002102A0912202B0912302C81AD90AEA0A89
:1020C000FB0A48E8C41643E1D406E104F10408F42D
:1020D0001BCF42E060E080913D0290913E020E9461
:1020E0004606C4E1D0E06FEF80913D0290913E0240
:1020F0000E94B4002197B9F764EF71E080E090E0AE
:102100000E94E80342E060E080913D0290913E022F
:102110000E944606C4E1D0E067E671E080913D028E
:1021200090913E020E94C4072197B1F780913F022F
:1021300081110AC00E941A04609324027093250240
:102140008093260290932702B0923F0210924002A1
:1021500060E084E00E943E0261E086E0A8CE10923A
:102160003C0210923B028091390290913A02019612
:102170008C3391052CF490933A028093390232CD3E
:1021800010923A02109239028091370290913802EF
:102190000196909338028093370224CD1092360234
:1021A00010923502809133029091340201968C3363
:1021B00091052CF4909334028093330227CD109232
:1021C00034021092330280913102909132020196D2
:1021D000909332028093310219CD052E97FB1EF4A5
:1021E00000940E94041157FD07D00E94171107FCAC
:1021F00003D04EF40C9404115095409530952195E0
:102200003F4F4F4F5F4F0895909580957095619522
:102210007F4F8F4F9F4F08950E943911A59F900DBA
:10222000B49F900DA49F800D911D11240895A1E2EB
:102230001A2EAA1BBB1BFD010DC0AA1FBB1FEE1F40
:10224000FF1FA217B307E407F50720F0A21BB30B8B
:10225000E40BF50B661F771F881F991F1A9469F707
:1022600060957095809590959B01AC01BD01CF0163
:102270000895A29FB001B39FC001A39F700D811D5F
:102280001124911DB29F700D811D1124911D08957F
:10229000EE0FFF1F0590F491E02D09940F931F930B
:1022A000CF93DF938230910510F482E090E0E091CB
:1022B0005503F091560330E020E0B0E0A0E0309705
:1022C00099F42115310509F44AC0281B390B243033
:1022D0003105D8F58A819B816115710589F1FB0172
:1022E00093838283FE0111C0408151810281138159
:1022F00048175907E0F04817590799F4109761F00B
:1023000012960C93129713961C933296CF01DF917D
:10231000CF911F910F910895009355031093560389
:10232000F4CF2115310551F04217530738F0A901B8
:10233000DB019A01BD01DF01F801C1CFEF01F9CF47
:102340009093560380935503CDCFFE01E20FF31F08
:10235000819391932250310939832883D7CF2091DB
:10236000530330915403232B41F420910301309106
:1023700004013093540320935303209101013091C1
:1023800002012115310541F42DB73EB740910501F9
:1023900050910601241B350BE0915303F091540337
:1023A000E217F307A0F42E1B3F0B2817390778F02C
:1023B000AC014E5F5F4F2417350748F04E0F5F1F8B
:1023C0005093540340935303819391939FCFF0E034
:1023D000E0E09CCFCF93DF930097E9F0FC013297C8
:1023E00013821282A0915503B0915603ED0130E0A3
:1023F00020E01097A1F420813181820F931F20915A
:102400005303309154032817390709F061C0F09342
:102410005403E0935303DF91CF910895EA01CE175F
:10242000DF07E8F54A815B819E0141155105B1F74F
:10243000E901FB83EA8349915991C40FD51FEC1739
:10244000FD0761F4808191810296840F951FE90157
:1024500099838883828193819B838A83F0E0E0E083
:1024600012968D919C9113970097B9F52D913C91FF
:102470001197CD010296820F931F20915303309143
:1024800054032817390739F6309751F5109256033F
:1024900010925503B0935403A0935303BCCFD3833E
:1024A000C28340815181840F951FC817D90761F4F9
:1024B0004E5F5F4F88819981480F591F5183408338
:1024C0008A819B81938382832115310509F0B0CFE6
:1024D000F0935603E09355039ECFFD01DC01C0CF7E
:0A24E00013821282D7CFF894FFCFC9
:1024EA00FF00005703800000004000140054000061
:1024FA000000004006DF000D060C06000000007F09
:10250A0001DF000C01CC013D011B012F010000007D
:10251A0000CA059D050D06730596058305740520F9
:10252A0020204E45555452414C4E592020424F448A
:10253A0020202000202020202020202020202020B1
:10254A002020202020202020004932432064657664
:10255A0069636520666F756E6420617420616464C6
:10256A0072657373203078002021000D0A004345FC
:10257A00522030303A30303A3030004D4F4420301B
:08258A00303A30303A303000E5
:00000001FF
